{
  "contractName": "SimpleStorage",
  "abi": [
    {
      "constant": true,
      "inputs": [
        {
          "internalType": "uint256",
          "name": "",
          "type": "uint256"
        },
        {
          "internalType": "uint256",
          "name": "",
          "type": "uint256"
        }
      ],
      "name": "ipfsHashes",
      "outputs": [
        {
          "internalType": "int256",
          "name": "",
          "type": "int256"
        }
      ],
      "payable": false,
      "stateMutability": "view",
      "type": "function"
    },
    {
      "constant": true,
      "inputs": [],
      "name": "get",
      "outputs": [
        {
          "internalType": "string",
          "name": "",
          "type": "string"
        }
      ],
      "payable": false,
      "stateMutability": "view",
      "type": "function"
    },
    {
      "constant": false,
      "inputs": [
        {
          "internalType": "string",
          "name": "_value",
          "type": "string"
        }
      ],
      "name": "set",
      "outputs": [],
      "payable": false,
      "stateMutability": "nonpayable",
      "type": "function"
    },
    {
      "constant": true,
      "inputs": [],
      "name": "getIpfsHashes",
      "outputs": [
        {
          "internalType": "int256[512][]",
          "name": "",
          "type": "int256[512][]"
        }
      ],
      "payable": false,
      "stateMutability": "view",
      "type": "function"
    },
    {
      "constant": false,
      "inputs": [
        {
          "internalType": "int256[512]",
          "name": "newValue",
          "type": "int256[512]"
        }
      ],
      "name": "pushToIpfsHashes",
      "outputs": [],
      "payable": false,
      "stateMutability": "nonpayable",
      "type": "function"
    }
  ],
  "bytecode": "0x608060405234801561001057600080fd5b506108dd806100206000396000f3fe608060405234801561001057600080fd5b50600436106100575760003560e01c80634ed3885e1461005c5780636d4ce63c14610078578063734cff8414610096578063f6e4c600146100c6578063fea628bd146100e4575b600080fd5b610076600480360361007191908101906104ee565b610100565b005b61008061011a565b60405161008d91906106e5565b60405180910390f35b6100b060048036036100ab919081019061052f565b6101bc565b6040516100bd91906106ca565b60405180910390f35b6100ce6101f0565b6040516100db91906106a8565b60405180910390f35b6100fe60048036036100f991908101906104c4565b610283565b005b80600090805190602001906101169291906102c6565b5050565b606060008054600181600116156101000203166002900480601f0160208091040260200160405190810160405280929190818152602001828054600181600116156101000203166002900480156101b25780601f10610187576101008083540402835291602001916101b2565b820191906000526020600020905b81548152906001019060200180831161019557829003601f168201915b5050505050905090565b600182815481106101c957fe5b9060005260206000209061020002018161020081106101e457fe5b01600091509150505481565b60606001805480602002602001604051908101604052809291908181526020016000905b8282101561027a5783829060005260206000209061020002016102008060200260405190810160405280929190826102008015610266576020028201915b815481526020019060010190808311610252575b505050505081526020019060010190610214565b50505050905090565b6001819080600181540180825580915050906001820390600052602060002090610200020160009091929091909150906102006102c1929190610346565b505050565b828054600181600116156101000203166002900490600052602060002090601f016020900481019282601f1061030757805160ff1916838001178555610335565b82800160010185558215610335579182015b82811115610334578251825591602001919060010190610319565b5b5090506103429190610387565b5090565b826102008101928215610376579160200282015b8281111561037557825182559160200191906001019061035a565b5b50905061038391906103ac565b5090565b6103a991905b808211156103a557600081600090555060010161038d565b5090565b90565b6103ce91905b808211156103ca5760008160009055506001016103b2565b5090565b90565b600082601f8301126103e257600080fd5b6102006103f66103f182610734565b610707565b9150818385602084028201111561040c57600080fd5b60005b8381101561043c57816104228882610446565b84526020840193506020830192505060018101905061040f565b5050505092915050565b6000813590506104558161086c565b92915050565b600082601f83011261046c57600080fd5b813561047f61047a82610756565b610707565b9150808252602083016020830185838301111561049b57600080fd5b6104a6838284610819565b50505092915050565b6000813590506104be81610883565b92915050565b600061400082840312156104d757600080fd5b60006104e5848285016103d1565b91505092915050565b60006020828403121561050057600080fd5b600082013567ffffffffffffffff81111561051a57600080fd5b6105268482850161045b565b91505092915050565b6000806040838503121561054257600080fd5b6000610550858286016104af565b9250506020610561858286016104af565b9150509250929050565b600061057783836105fa565b6140008301905092915050565b60006105908383610651565b60208301905092915050565b60006105a78261079c565b6105b181856107d8565b93506105bc83610782565b8060005b838110156105ed5781516105d4888261056b565b97506105df836107be565b9250506001810190506105c0565b5085935050505092915050565b610603816107a7565b61060d81846107e9565b925061061882610792565b8060005b838110156106495781516106308782610584565b965061063b836107cb565b92505060018101905061061c565b505050505050565b61065a81610805565b82525050565b61066981610805565b82525050565b600061067a826107b3565b61068481856107f4565b9350610694818560208601610828565b61069d8161085b565b840191505092915050565b600060208201905081810360008301526106c2818461059c565b905092915050565b60006020820190506106df6000830184610660565b92915050565b600060208201905081810360008301526106ff818461066f565b905092915050565b6000604051905081810181811067ffffffffffffffff8211171561072a57600080fd5b8060405250919050565b600067ffffffffffffffff82111561074b57600080fd5b602082029050919050565b600067ffffffffffffffff82111561076d57600080fd5b601f19601f8301169050602081019050919050565b6000819050602082019050919050565b6000819050919050565b600081519050919050565b60006102009050919050565b600081519050919050565b6000602082019050919050565b6000602082019050919050565b600082825260208201905092915050565b600081905092915050565b600082825260208201905092915050565b6000819050919050565b6000819050919050565b82818337600083830152505050565b60005b8381101561084657808201518184015260208101905061082b565b83811115610855576000848401525b50505050565b6000601f19601f8301169050919050565b61087581610805565b811461088057600080fd5b50565b61088c8161080f565b811461089757600080fd5b5056fea365627a7a723158207621e6379cb15309124bbdd7d2e0f3f90d22e841ea1ee32fc7dd01f8f6dcdc916c6578706572696d656e74616cf564736f6c63430005100040",
  "source": "pragma experimental ABIEncoderV2;\n\ncontract SimpleStorage {\n    string ipfsHash;\n    int [512] [] public ipfsHashes;\n\n    function get() public view returns (string memory) {\n        return ipfsHash;\n    }\n\n    function set(string memory _value) public {\n        ipfsHash = _value;\n    }\n\n    function getIpfsHashes() public view returns (int [512][] memory) {\n        return ipfsHashes;\n    }\n\n    function pushToIpfsHashes(int [512] memory newValue) public {\n        //converting string to byte array manually\n        ipfsHashes.push(newValue);\n    }\n}\n",
  "sourcePath": "/Users/prateeksharma/Documents/Projects/ipfs_image_uploader/contracts/SimpleStorage.sol",
  "compiler": {
    "name": "solc",
    "version": "0.5.16+commit.9c3226ce.Emscripten.clang"
  },
  "schemaVersion": "3.4.6",
  "updatedAt": "2022-03-26T10:05:37.739Z",
  "networkType": "ethereum",
  "devdoc": {
    "methods": {}
  },
  "userdoc": {
    "methods": {}
  }
}